:020000040000fa
:080000000002040000000000f2
:020000040000fa
:1000080004030000040300000403000004030000cc
:1000180004030000040300000403000004030000bc
:10002800040300000403000004030000d2020000df
:10003800040300000403000004030000040300009c
:10004800040300000403000004030000040300008c
:10005800040300000403000004030000040300007c
:10006800040300000403000004030000da02000097
:10007800040300000403000004030000040300005c
:10008800040300000403000004030000040300004c
:10009800040300000403000004030000040300003c
:1000a800040300000403000004030000040300002c
:020000040000fa
:100400000f0021000eff24000e01880000000000f4
:10041000000020000000e000020032000001200087
:10042000200288000c000700e036200001002000b8
:100430000f000700000020000000e0000200320072
:100440000000020000000000f602020000000000b0
:100450000040da000000fe00200020000000e00064
:100460000200320010002000900188000000060009
:10047000a1028800800078000000eb001a0037001d
:10048000e280400054a0b4009101ba00e280400034
:1004900054a0b4009102ba00e280400054a0b4001d
:1004a0000002eb00472bde00f507b200a601880032
:1004b000602ce10008003a000049eb000201e8006e
:1004c000020039003420ec0002f0a0008301e900b2
:1004d000f9ff3e00040037006128e100010032000e
:1004e0000082eb00040007001101ba000200e000e6
:1004f000e3ff3a000000060004d0a300e20f490029
:100500001c003900810278003549ba000201e80078
:10051000020039003420ec0002f0a0008301e90061
:100520000f0032002549ba000201e800020039003c
:100530003420ec0002f0a0008301e9000800320042
:100540000400e0000600320015c9ba000201e8000c
:10055000020039003420ec0002f0a0008301e90021
:100560008180e80054a0b4000300e000e2ff3a00fc
:10057000000006009102ba00055978008301e900e5
:10058000f7ff3200c82ade00055978008301e90030
:10059000f3ff32000400e000f1ff320011d9ba008d
:1005a000eeff37000000fa000068a9000080fa00a2
:1005b00000400600809fbe000000fa000268a9000b
:1005c0009170800000002800008060000000e000c2
:1005d00002003200124ea80001003700124ea9009e
:1005e0000080fa004f00be00004006000000fa0044
:1005f0001500070006000700160007002a00070084
:10060000124ea900ffff37000040da000000fe0094
:020000040000fa
:100610000000fa000e2eef001e2eef00000ea900c3
:10062000002ea900004ea900006ea900100ea9001e
:10063000102ea900104ea900106ea90011eea800fe
:100640000080fa00000006000000fa000080fa00b6
:10065000000006000000fa0005e1a9002008800063
:100660000040a0000050a0002008880080de2f007d
:10067000100888000441a9000421a900004280005c
:1006800000c0a10000d0a10000e0a000004288004e
:100690002068a8000068a90005e1a8000021ef007b
:1006a0000080fa00000006000000fa0019eea80021
:1006b0001beea9001deea9004042800000c0a10071
:1006c00000d0a00000e0a000404288000268a9001d
:0c06d0002268a8000080fa00000006006c
:020000040000fa
:0406dc00000000001a
:020000040000fa
:020000040002f8
:04aff000f8ff000066
:00000001FF
